{
  "contractName": "BiddingContract",
  "abi": [
    {
      "inputs": [],
      "stateMutability": "nonpayable",
      "type": "constructor"
    },
    {
      "anonymous": false,
      "inputs": [
        {
          "indexed": true,
          "internalType": "bytes32",
          "name": "id",
          "type": "bytes32"
        }
      ],
      "name": "ChainlinkCancelled",
      "type": "event"
    },
    {
      "anonymous": false,
      "inputs": [
        {
          "indexed": true,
          "internalType": "bytes32",
          "name": "id",
          "type": "bytes32"
        }
      ],
      "name": "ChainlinkFulfilled",
      "type": "event"
    },
    {
      "anonymous": false,
      "inputs": [
        {
          "indexed": true,
          "internalType": "bytes32",
          "name": "id",
          "type": "bytes32"
        }
      ],
      "name": "ChainlinkRequested",
      "type": "event"
    },
    {
      "inputs": [],
      "name": "currentBid",
      "outputs": [
        {
          "internalType": "string",
          "name": "team1",
          "type": "string"
        },
        {
          "internalType": "string",
          "name": "team2",
          "type": "string"
        },
        {
          "internalType": "address",
          "name": "bidder1",
          "type": "address"
        },
        {
          "internalType": "address",
          "name": "bidder2",
          "type": "address"
        },
        {
          "internalType": "string",
          "name": "bidder1ResultGuess",
          "type": "string"
        },
        {
          "internalType": "string",
          "name": "bidder2ResultGuess",
          "type": "string"
        },
        {
          "internalType": "uint256",
          "name": "result1",
          "type": "uint256"
        },
        {
          "internalType": "uint256",
          "name": "result2",
          "type": "uint256"
        },
        {
          "internalType": "uint256",
          "name": "bidAmount",
          "type": "uint256"
        },
        {
          "internalType": "bool",
          "name": "resolved",
          "type": "bool"
        }
      ],
      "stateMutability": "view",
      "type": "function",
      "constant": true
    },
    {
      "inputs": [
        {
          "internalType": "string",
          "name": "_team1",
          "type": "string"
        },
        {
          "internalType": "string",
          "name": "_team2",
          "type": "string"
        },
        {
          "internalType": "address",
          "name": "_bidder2",
          "type": "address"
        },
        {
          "internalType": "string",
          "name": "_bidder1ResultGuess",
          "type": "string"
        },
        {
          "internalType": "string",
          "name": "_bidder2ResultGuess",
          "type": "string"
        },
        {
          "internalType": "uint256",
          "name": "_bidAmount",
          "type": "uint256"
        }
      ],
      "name": "openBid",
      "outputs": [],
      "stateMutability": "nonpayable",
      "type": "function"
    },
    {
      "inputs": [],
      "name": "placeBid",
      "outputs": [],
      "stateMutability": "payable",
      "type": "function",
      "payable": true
    },
    {
      "inputs": [],
      "name": "resolveBid",
      "outputs": [],
      "stateMutability": "nonpayable",
      "type": "function"
    }
  ],
  "bytecode": "0x6080604052600160045534801561001557600080fd5b5033600660006101000a81548173ffffffffffffffffffffffffffffffffffffffff021916908373ffffffffffffffffffffffffffffffffffffffff1602179055506111bc806100666000396000f3fe60806040526004361061003f5760003560e01c806302e0419c14610044578063352ec1e01461006d578063def1810114610084578063ecfc7ecc146100b8575b600080fd5b34801561005057600080fd5b5061006b600480360381019061006691906109f9565b6100c2565b005b34801561007957600080fd5b5061008261032d565b005b34801561009057600080fd5b50610099610412565b6040516100af9a99989796959493929190610bae565b60405180910390f35b6100c06106c1565b005b600a60090160009054906101000a900460ff16610114576040517f08c379a000000000000000000000000000000000000000000000000000000000815260040161010b90610cb2565b60405180910390fd5b600073ffffffffffffffffffffffffffffffffffffffff168473ffffffffffffffffffffffffffffffffffffffff1603610183576040517f08c379a000000000000000000000000000000000000000000000000000000000815260040161017a90610d1e565b60405180910390fd5b6040518061014001604052808781526020018681526020013373ffffffffffffffffffffffffffffffffffffffff1681526020018573ffffffffffffffffffffffffffffffffffffffff168152602001848152602001838152602001600081526020016000815260200182815260200160001515815250600a60008201518160000190816102119190610f4a565b5060208201518160010190816102279190610f4a565b5060408201518160020160006101000a81548173ffffffffffffffffffffffffffffffffffffffff021916908373ffffffffffffffffffffffffffffffffffffffff16021790555060608201518160030160006101000a81548173ffffffffffffffffffffffffffffffffffffffff021916908373ffffffffffffffffffffffffffffffffffffffff16021790555060808201518160040190816102cb9190610f4a565b5060a08201518160050190816102e19190610f4a565b5060c0820151816006015560e0820151816007015561010082015181600801556101208201518160090160006101000a81548160ff021916908315150217905550905050505050505050565b600a60090160009054906101000a900460ff1615610380576040517f08c379a000000000000000000000000000000000000000000000000000000000815260040161037790611068565b60405180910390fd5b600660009054906101000a900473ffffffffffffffffffffffffffffffffffffffff1673ffffffffffffffffffffffffffffffffffffffff163373ffffffffffffffffffffffffffffffffffffffff1614610410576040517f08c379a0000000000000000000000000000000000000000000000000000000008152600401610407906110fa565b60405180910390fd5b565b600a80600001805461042390610d6d565b80601f016020809104026020016040519081016040528092919081815260200182805461044f90610d6d565b801561049c5780601f106104715761010080835404028352916020019161049c565b820191906000526020600020905b81548152906001019060200180831161047f57829003601f168201915b5050505050908060010180546104b190610d6d565b80601f01602080910402602001604051908101604052809291908181526020018280546104dd90610d6d565b801561052a5780601f106104ff5761010080835404028352916020019161052a565b820191906000526020600020905b81548152906001019060200180831161050d57829003601f168201915b5050505050908060020160009054906101000a900473ffffffffffffffffffffffffffffffffffffffff16908060030160009054906101000a900473ffffffffffffffffffffffffffffffffffffffff169080600401805461058b90610d6d565b80601f01602080910402602001604051908101604052809291908181526020018280546105b790610d6d565b80156106045780601f106105d957610100808354040283529160200191610604565b820191906000526020600020905b8154815290600101906020018083116105e757829003601f168201915b50505050509080600501805461061990610d6d565b80601f016020809104026020016040519081016040528092919081815260200182805461064590610d6d565b80156106925780601f1061066757610100808354040283529160200191610692565b820191906000526020600020905b81548152906001019060200180831161067557829003601f168201915b5050505050908060060154908060070154908060080154908060090160009054906101000a900460ff1690508a565b600a60020160009054906101000a900473ffffffffffffffffffffffffffffffffffffffff1673ffffffffffffffffffffffffffffffffffffffff163373ffffffffffffffffffffffffffffffffffffffff1603610754576040517f08c379a000000000000000000000000000000000000000000000000000000000815260040161074b90611166565b60405180910390fd5b600a60030160009054906101000a900473ffffffffffffffffffffffffffffffffffffffff1673ffffffffffffffffffffffffffffffffffffffff166108fc600a600801549081150290604051600060405180830381858888f193505050501580156107c4573d6000803e3d6000fd5b5033600a60030160006101000a81548173ffffffffffffffffffffffffffffffffffffffff021916908373ffffffffffffffffffffffffffffffffffffffff160217905550565b6000604051905090565b600080fd5b600080fd5b600080fd5b600080fd5b6000601f19601f8301169050919050565b7f4e487b7100000000000000000000000000000000000000000000000000000000600052604160045260246000fd5b61087282610829565b810181811067ffffffffffffffff821117156108915761089061083a565b5b80604052505050565b60006108a461080b565b90506108b08282610869565b919050565b600067ffffffffffffffff8211156108d0576108cf61083a565b5b6108d982610829565b9050602081019050919050565b82818337600083830152505050565b6000610908610903846108b5565b61089a565b90508281526020810184848401111561092457610923610824565b5b61092f8482856108e6565b509392505050565b600082601f83011261094c5761094b61081f565b5b813561095c8482602086016108f5565b91505092915050565b600073ffffffffffffffffffffffffffffffffffffffff82169050919050565b600061099082610965565b9050919050565b6109a081610985565b81146109ab57600080fd5b50565b6000813590506109bd81610997565b92915050565b6000819050919050565b6109d6816109c3565b81146109e157600080fd5b50565b6000813590506109f3816109cd565b92915050565b60008060008060008060c08789031215610a1657610a15610815565b5b600087013567ffffffffffffffff811115610a3457610a3361081a565b5b610a4089828a01610937565b965050602087013567ffffffffffffffff811115610a6157610a6061081a565b5b610a6d89828a01610937565b9550506040610a7e89828a016109ae565b945050606087013567ffffffffffffffff811115610a9f57610a9e61081a565b5b610aab89828a01610937565b935050608087013567ffffffffffffffff811115610acc57610acb61081a565b5b610ad889828a01610937565b92505060a0610ae989828a016109e4565b9150509295509295509295565b600081519050919050565b600082825260208201905092915050565b60005b83811015610b30578082015181840152602081019050610b15565b60008484015250505050565b6000610b4782610af6565b610b518185610b01565b9350610b61818560208601610b12565b610b6a81610829565b840191505092915050565b610b7e81610985565b82525050565b610b8d816109c3565b82525050565b60008115159050919050565b610ba881610b93565b82525050565b6000610140820190508181036000830152610bc9818d610b3c565b90508181036020830152610bdd818c610b3c565b9050610bec604083018b610b75565b610bf9606083018a610b75565b8181036080830152610c0b8189610b3c565b905081810360a0830152610c1f8188610b3c565b9050610c2e60c0830187610b84565b610c3b60e0830186610b84565b610c49610100830185610b84565b610c57610120830184610b9f565b9b9a5050505050505050505050565b7f412062696420697320616c7265616479206f70656e2e00000000000000000000600082015250565b6000610c9c601683610b01565b9150610ca782610c66565b602082019050919050565b60006020820190508181036000830152610ccb81610c8f565b9050919050565b7f496e76616c69642062696464657220616464726573732e000000000000000000600082015250565b6000610d08601783610b01565b9150610d1382610cd2565b602082019050919050565b60006020820190508181036000830152610d3781610cfb565b9050919050565b7f4e487b7100000000000000000000000000000000000000000000000000000000600052602260045260246000fd5b60006002820490506001821680610d8557607f821691505b602082108103610d9857610d97610d3e565b5b50919050565b60008190508160005260206000209050919050565b60006020601f8301049050919050565b600082821b905092915050565b600060088302610e007fffffffffffffffffffffffffffffffffffffffffffffffffffffffffffffffff82610dc3565b610e0a8683610dc3565b95508019841693508086168417925050509392505050565b6000819050919050565b6000610e47610e42610e3d846109c3565b610e22565b6109c3565b9050919050565b6000819050919050565b610e6183610e2c565b610e75610e6d82610e4e565b848454610dd0565b825550505050565b600090565b610e8a610e7d565b610e95818484610e58565b505050565b5b81811015610eb957610eae600082610e82565b600181019050610e9b565b5050565b601f821115610efe57610ecf81610d9e565b610ed884610db3565b81016020851015610ee7578190505b610efb610ef385610db3565b830182610e9a565b50505b505050565b600082821c905092915050565b6000610f2160001984600802610f03565b1980831691505092915050565b6000610f3a8383610f10565b9150826002028217905092915050565b610f5382610af6565b67ffffffffffffffff811115610f6c57610f6b61083a565b5b610f768254610d6d565b610f81828285610ebd565b600060209050601f831160018114610fb45760008415610fa2578287015190505b610fac8582610f2e565b865550611014565b601f198416610fc286610d9e565b60005b82811015610fea57848901518255600182019150602085019450602081019050610fc5565b868310156110075784890151611003601f891682610f10565b8355505b6001600288020188555050505b505050505050565b7f4e6f206f70656e2062696420617661696c61626c652e00000000000000000000600082015250565b6000611052601683610b01565b915061105d8261101c565b602082019050919050565b6000602082019050818103600083015261108181611045565b9050919050565b7f4f6e6c792074686520636f6e7472616374206f776e65722063616e207265736f60008201527f6c766520746865206269642e0000000000000000000000000000000000000000602082015250565b60006110e4602c83610b01565b91506110ef82611088565b604082019050919050565b60006020820190508181036000830152611113816110d7565b9050919050565b7f596f752063616e6e6f74206f757462696420796f757273656c662e0000000000600082015250565b6000611150601b83610b01565b915061115b8261111a565b602082019050919050565b6000602082019050818103600083015261117f81611143565b905091905056fea26469706673582212206e1ede9555b4641f644e61f48ac103c68557cf3036342107d8470ccc2b43412d64736f6c63430008130033",
  "immutableReferences": {},
  "source": "// SPDX-License-Identifier: MIT\r\npragma solidity >=0.6.6 <0.9.0;\r\npragma experimental ABIEncoderV2;\r\n\r\nimport \"../node_modules/@chainlink/contracts/src/v0.8/ChainlinkClient.sol\";\r\n\r\ncontract BiddingContract is ChainlinkClient {\r\n    using Chainlink for Chainlink.Request;\r\n\r\n    // Contract Variables\r\n    address private contractOwner;\r\n\r\n    // Chainlink oracle variables\r\n    address private oracle;\r\n    bytes32 private jobId;\r\n    uint256 private fee;\r\n\r\n    struct Bid {\r\n        string team1;\r\n        string team2;\r\n        address bidder1;\r\n        address bidder2;\r\n        string bidder1ResultGuess; // result format: \"2-1\"\r\n        string bidder2ResultGuess; // result format: \"3-5\"\r\n        uint result1;\r\n        uint result2;\r\n        uint256 bidAmount;\r\n        bool resolved;\r\n    }\r\n\r\n    Bid public currentBid;\r\n\r\n    constructor() {\r\n        // Set initial values\r\n        contractOwner = msg.sender;\r\n    }\r\n\r\n    function openBid(\r\n        string memory _team1,\r\n        string memory _team2,\r\n        address _bidder2,\r\n        string memory _bidder1ResultGuess, // result format: \"2-1\"\r\n        string memory _bidder2ResultGuess, // result format: \"3-5\"\r\n        uint256  _bidAmount\r\n    ) public {\r\n        require(currentBid.resolved, \"A bid is already open.\");\r\n        require(_bidder2 != address(0), \"Invalid bidder address.\");\r\n\r\n        currentBid = Bid({\r\n            team1: _team1,\r\n            team2: _team2,\r\n            bidder1: msg.sender,\r\n            bidder2: _bidder2,\r\n            bidder1ResultGuess: _bidder1ResultGuess,\r\n            bidder2ResultGuess: _bidder2ResultGuess,\r\n            result1: 0,\r\n            result2: 0,\r\n            bidAmount: _bidAmount,\r\n            resolved: false\r\n        });\r\n\r\n    }\r\n\r\n    function placeBid() public payable {\r\n        require(msg.sender != currentBid.bidder1, \"You cannot outbid yourself.\");\r\n\r\n        // Return funds to previous bidder\r\n        payable(currentBid.bidder2).transfer(currentBid.bidAmount);\r\n\r\n        // Update bidder\r\n        currentBid.bidder2 = msg.sender;\r\n    }\r\n\r\n    function resolveBid() public {\r\n        require(!currentBid.resolved, \"No open bid available.\");\r\n        require(msg.sender == contractOwner, \"Only the contract owner can resolve the bid.\");\r\n\r\n        // requestMatchData();\r\n    }\r\n\r\n    // function requestMatchData() private {\r\n    //     Chainlink.Request memory request = buildChainlinkRequest(\r\n    //         jobId,\r\n    //         address(this),\r\n    //         this.handleMatchData.selector\r\n    //     );\r\n    //     request.add(\"get\", \"https://api.football-data.org/v4/matches\"); // Set the Football-Data.org API endpoint for retrieving match data\r\n    //     request.add(\r\n    //         \"headers\",\r\n    //         \"X-Auth-Token: 8b752b2a04694a799db1fdf1b9bca649\"\r\n    //     ); // Set the actual auth token\r\n    //     sendChainlinkRequestTo(oracle, request, fee);\r\n    // }\r\n}\r\n",
  "sourcePath": "C:\\Users\\Sman9\\Desktop\\   \\ '\\ '\\  '\\project\\contracts\\biddingContract.sol",
  "compiler": {
    "name": "solc",
    "version": "0.8.19+commit.7dd6d404.Emscripten.clang"
  },
  "schemaVersion": "3.4.13",
  "updatedAt": "2023-06-30T21:38:51.871Z",
  "networkType": "ethereum",
  "devdoc": {
    "kind": "dev",
    "methods": {},
    "version": 1
  },
  "userdoc": {
    "kind": "user",
    "methods": {},
    "version": 1
  }
}