{
  "contractName": "BiddingContract",
  "abi": [
    {
      "inputs": [],
      "stateMutability": "nonpayable",
      "type": "constructor"
    },
    {
      "anonymous": false,
      "inputs": [
        {
          "indexed": true,
          "internalType": "bytes32",
          "name": "id",
          "type": "bytes32"
        }
      ],
      "name": "ChainlinkCancelled",
      "type": "event"
    },
    {
      "anonymous": false,
      "inputs": [
        {
          "indexed": true,
          "internalType": "bytes32",
          "name": "id",
          "type": "bytes32"
        }
      ],
      "name": "ChainlinkFulfilled",
      "type": "event"
    },
    {
      "anonymous": false,
      "inputs": [
        {
          "indexed": true,
          "internalType": "bytes32",
          "name": "id",
          "type": "bytes32"
        }
      ],
      "name": "ChainlinkRequested",
      "type": "event"
    },
    {
      "inputs": [],
      "name": "currentBid",
      "outputs": [
        {
          "internalType": "string",
          "name": "team1",
          "type": "string"
        },
        {
          "internalType": "string",
          "name": "team2",
          "type": "string"
        },
        {
          "internalType": "address",
          "name": "bidder1",
          "type": "address"
        },
        {
          "internalType": "address",
          "name": "bidder2",
          "type": "address"
        },
        {
          "internalType": "string",
          "name": "bidder1ResultGuess",
          "type": "string"
        },
        {
          "internalType": "string",
          "name": "bidder2ResultGuess",
          "type": "string"
        },
        {
          "internalType": "uint256",
          "name": "result1",
          "type": "uint256"
        },
        {
          "internalType": "uint256",
          "name": "result2",
          "type": "uint256"
        },
        {
          "internalType": "uint256",
          "name": "bidAmount",
          "type": "uint256"
        },
        {
          "internalType": "bool",
          "name": "resolved",
          "type": "bool"
        }
      ],
      "stateMutability": "view",
      "type": "function",
      "constant": true
    },
    {
      "inputs": [],
      "name": "getContractOwner",
      "outputs": [
        {
          "internalType": "address",
          "name": "",
          "type": "address"
        }
      ],
      "stateMutability": "view",
      "type": "function",
      "constant": true
    },
    {
      "inputs": [],
      "name": "resolvedBid",
      "outputs": [],
      "stateMutability": "nonpayable",
      "type": "function"
    },
    {
      "inputs": [],
      "name": "getResolvedStatus",
      "outputs": [
        {
          "internalType": "bool",
          "name": "",
          "type": "bool"
        }
      ],
      "stateMutability": "view",
      "type": "function",
      "constant": true
    },
    {
      "inputs": [
        {
          "internalType": "string",
          "name": "_team1",
          "type": "string"
        },
        {
          "internalType": "string",
          "name": "_team2",
          "type": "string"
        },
        {
          "internalType": "address",
          "name": "_bidder2",
          "type": "address"
        },
        {
          "internalType": "string",
          "name": "_bidder1ResultGuess",
          "type": "string"
        },
        {
          "internalType": "string",
          "name": "_bidder2ResultGuess",
          "type": "string"
        },
        {
          "internalType": "uint256",
          "name": "_bidAmount",
          "type": "uint256"
        }
      ],
      "name": "openBid",
      "outputs": [],
      "stateMutability": "nonpayable",
      "type": "function"
    },
    {
      "inputs": [],
      "name": "placeBid",
      "outputs": [],
      "stateMutability": "payable",
      "type": "function",
      "payable": true
    },
    {
      "inputs": [],
      "name": "resolveBid",
      "outputs": [],
      "stateMutability": "nonpayable",
      "type": "function"
    }
  ],
  "bytecode": "0x6080604052600160045534801561001557600080fd5b5033600660006101000a81548173ffffffffffffffffffffffffffffffffffffffff021916908373ffffffffffffffffffffffffffffffffffffffff160217905550611137806100666000396000f3fe6080604052600436106100705760003560e01c8063bdd6c7ae1161004e578063bdd6c7ae146100e0578063def18101146100f7578063ecfc7ecc1461012b578063f361561f1461013557610070565b806302e0419c14610075578063352ec1e01461009e578063442890d5146100b5575b600080fd5b34801561008157600080fd5b5061009c60048036038101906100979190610a16565b610160565b005b3480156100aa57600080fd5b506100b3610379565b005b3480156100c157600080fd5b506100ca61045e565b6040516100d79190610b22565b60405180910390f35b3480156100ec57600080fd5b506100f5610488565b005b34801561010357600080fd5b5061010c6104a8565b6040516101229a99989796959493929190610be6565b60405180910390f35b610133610757565b005b34801561014157600080fd5b5061014a61080e565b6040516101579190610c9e565b60405180910390f35b600073ffffffffffffffffffffffffffffffffffffffff168473ffffffffffffffffffffffffffffffffffffffff16036101cf576040517f08c379a00000000000000000000000000000000000000000000000000000000081526004016101c690610d05565b60405180910390fd5b6040518061014001604052808781526020018681526020013373ffffffffffffffffffffffffffffffffffffffff1681526020018573ffffffffffffffffffffffffffffffffffffffff168152602001848152602001838152602001600081526020016000815260200182815260200160001515815250600a600082015181600001908161025d9190610f31565b5060208201518160010190816102739190610f31565b5060408201518160020160006101000a81548173ffffffffffffffffffffffffffffffffffffffff021916908373ffffffffffffffffffffffffffffffffffffffff16021790555060608201518160030160006101000a81548173ffffffffffffffffffffffffffffffffffffffff021916908373ffffffffffffffffffffffffffffffffffffffff16021790555060808201518160040190816103179190610f31565b5060a082015181600501908161032d9190610f31565b5060c0820151816006015560e0820151816007015561010082015181600801556101208201518160090160006101000a81548160ff021916908315150217905550905050505050505050565b600a60090160009054906101000a900460ff16156103cc576040517f08c379a00000000000000000000000000000000000000000000000000000000081526004016103c39061104f565b60405180910390fd5b600660009054906101000a900473ffffffffffffffffffffffffffffffffffffffff1673ffffffffffffffffffffffffffffffffffffffff163373ffffffffffffffffffffffffffffffffffffffff161461045c576040517f08c379a0000000000000000000000000000000000000000000000000000000008152600401610453906110e1565b60405180910390fd5b565b6000600660009054906101000a900473ffffffffffffffffffffffffffffffffffffffff16905090565b6001600a60090160006101000a81548160ff021916908315150217905550565b600a8060000180546104b990610d54565b80601f01602080910402602001604051908101604052809291908181526020018280546104e590610d54565b80156105325780601f1061050757610100808354040283529160200191610532565b820191906000526020600020905b81548152906001019060200180831161051557829003601f168201915b50505050509080600101805461054790610d54565b80601f016020809104026020016040519081016040528092919081815260200182805461057390610d54565b80156105c05780601f10610595576101008083540402835291602001916105c0565b820191906000526020600020905b8154815290600101906020018083116105a357829003601f168201915b5050505050908060020160009054906101000a900473ffffffffffffffffffffffffffffffffffffffff16908060030160009054906101000a900473ffffffffffffffffffffffffffffffffffffffff169080600401805461062190610d54565b80601f016020809104026020016040519081016040528092919081815260200182805461064d90610d54565b801561069a5780601f1061066f5761010080835404028352916020019161069a565b820191906000526020600020905b81548152906001019060200180831161067d57829003601f168201915b5050505050908060050180546106af90610d54565b80601f01602080910402602001604051908101604052809291908181526020018280546106db90610d54565b80156107285780601f106106fd57610100808354040283529160200191610728565b820191906000526020600020905b81548152906001019060200180831161070b57829003601f168201915b5050505050908060060154908060070154908060080154908060090160009054906101000a900460ff1690508a565b600a60030160009054906101000a900473ffffffffffffffffffffffffffffffffffffffff1673ffffffffffffffffffffffffffffffffffffffff166108fc600a600801549081150290604051600060405180830381858888f193505050501580156107c7573d6000803e3d6000fd5b5033600a60030160006101000a81548173ffffffffffffffffffffffffffffffffffffffff021916908373ffffffffffffffffffffffffffffffffffffffff160217905550565b6000600a60090160009054906101000a900460ff16905090565b6000604051905090565b600080fd5b600080fd5b600080fd5b600080fd5b6000601f19601f8301169050919050565b7f4e487b7100000000000000000000000000000000000000000000000000000000600052604160045260246000fd5b61088f82610846565b810181811067ffffffffffffffff821117156108ae576108ad610857565b5b80604052505050565b60006108c1610828565b90506108cd8282610886565b919050565b600067ffffffffffffffff8211156108ed576108ec610857565b5b6108f682610846565b9050602081019050919050565b82818337600083830152505050565b6000610925610920846108d2565b6108b7565b90508281526020810184848401111561094157610940610841565b5b61094c848285610903565b509392505050565b600082601f8301126109695761096861083c565b5b8135610979848260208601610912565b91505092915050565b600073ffffffffffffffffffffffffffffffffffffffff82169050919050565b60006109ad82610982565b9050919050565b6109bd816109a2565b81146109c857600080fd5b50565b6000813590506109da816109b4565b92915050565b6000819050919050565b6109f3816109e0565b81146109fe57600080fd5b50565b600081359050610a10816109ea565b92915050565b60008060008060008060c08789031215610a3357610a32610832565b5b600087013567ffffffffffffffff811115610a5157610a50610837565b5b610a5d89828a01610954565b965050602087013567ffffffffffffffff811115610a7e57610a7d610837565b5b610a8a89828a01610954565b9550506040610a9b89828a016109cb565b945050606087013567ffffffffffffffff811115610abc57610abb610837565b5b610ac889828a01610954565b935050608087013567ffffffffffffffff811115610ae957610ae8610837565b5b610af589828a01610954565b92505060a0610b0689828a01610a01565b9150509295509295509295565b610b1c816109a2565b82525050565b6000602082019050610b376000830184610b13565b92915050565b600081519050919050565b600082825260208201905092915050565b60005b83811015610b77578082015181840152602081019050610b5c565b60008484015250505050565b6000610b8e82610b3d565b610b988185610b48565b9350610ba8818560208601610b59565b610bb181610846565b840191505092915050565b610bc5816109e0565b82525050565b60008115159050919050565b610be081610bcb565b82525050565b6000610140820190508181036000830152610c01818d610b83565b90508181036020830152610c15818c610b83565b9050610c24604083018b610b13565b610c31606083018a610b13565b8181036080830152610c438189610b83565b905081810360a0830152610c578188610b83565b9050610c6660c0830187610bbc565b610c7360e0830186610bbc565b610c81610100830185610bbc565b610c8f610120830184610bd7565b9b9a5050505050505050505050565b6000602082019050610cb36000830184610bd7565b92915050565b7f496e76616c69642062696464657220616464726573732e000000000000000000600082015250565b6000610cef601783610b48565b9150610cfa82610cb9565b602082019050919050565b60006020820190508181036000830152610d1e81610ce2565b9050919050565b7f4e487b7100000000000000000000000000000000000000000000000000000000600052602260045260246000fd5b60006002820490506001821680610d6c57607f821691505b602082108103610d7f57610d7e610d25565b5b50919050565b60008190508160005260206000209050919050565b60006020601f8301049050919050565b600082821b905092915050565b600060088302610de77fffffffffffffffffffffffffffffffffffffffffffffffffffffffffffffffff82610daa565b610df18683610daa565b95508019841693508086168417925050509392505050565b6000819050919050565b6000610e2e610e29610e24846109e0565b610e09565b6109e0565b9050919050565b6000819050919050565b610e4883610e13565b610e5c610e5482610e35565b848454610db7565b825550505050565b600090565b610e71610e64565b610e7c818484610e3f565b505050565b5b81811015610ea057610e95600082610e69565b600181019050610e82565b5050565b601f821115610ee557610eb681610d85565b610ebf84610d9a565b81016020851015610ece578190505b610ee2610eda85610d9a565b830182610e81565b50505b505050565b600082821c905092915050565b6000610f0860001984600802610eea565b1980831691505092915050565b6000610f218383610ef7565b9150826002028217905092915050565b610f3a82610b3d565b67ffffffffffffffff811115610f5357610f52610857565b5b610f5d8254610d54565b610f68828285610ea4565b600060209050601f831160018114610f9b5760008415610f89578287015190505b610f938582610f15565b865550610ffb565b601f198416610fa986610d85565b60005b82811015610fd157848901518255600182019150602085019450602081019050610fac565b86831015610fee5784890151610fea601f891682610ef7565b8355505b6001600288020188555050505b505050505050565b7f4e6f206f70656e2062696420617661696c61626c652e00000000000000000000600082015250565b6000611039601683610b48565b915061104482611003565b602082019050919050565b600060208201905081810360008301526110688161102c565b9050919050565b7f4f6e6c792074686520636f6e7472616374206f776e65722063616e207265736f60008201527f6c766520746865206269642e0000000000000000000000000000000000000000602082015250565b60006110cb602c83610b48565b91506110d68261106f565b604082019050919050565b600060208201905081810360008301526110fa816110be565b905091905056fea2646970667358221220eb53819773a39e8220b94ffce4b83884778e9415e03fb4f9973fcffed7bb5be664736f6c63430008130033",
  "immutableReferences": {},
  "source": "// SPDX-License-Identifier: MIT\r\npragma solidity >=0.6.6 <0.9.0;\r\npragma experimental ABIEncoderV2;\r\n\r\nimport \"../node_modules/@chainlink/contracts/src/v0.8/ChainlinkClient.sol\";\r\n\r\ncontract BiddingContract is ChainlinkClient {\r\n    using Chainlink for Chainlink.Request;\r\n\r\n    // Contract Variables\r\n    address private contractOwner;\r\n\r\n    // Chainlink oracle variables\r\n    address private oracle;\r\n    bytes32 private jobId;\r\n    uint256 private fee;\r\n\r\n    struct Bid {\r\n        string team1;\r\n        string team2;\r\n        address bidder1;\r\n        address bidder2;\r\n        string bidder1ResultGuess; // result format: \"2-1\"\r\n        string bidder2ResultGuess; // result format: \"3-5\"\r\n        uint result1;\r\n        uint result2;\r\n        uint256 bidAmount;\r\n        bool resolved;\r\n    }\r\n\r\n    Bid public currentBid;\r\n\r\n    constructor() {\r\n        // Set initial values\r\n        contractOwner = msg.sender;\r\n    }\r\n\r\n    function getContractOwner() public view returns (address) {\r\n        return contractOwner;\r\n    }\r\n\r\n    function resolvedBid() public {\r\n        currentBid.resolved = true;\r\n    }\r\n\r\n    function getResolvedStatus() public view returns (bool) {\r\n        return currentBid.resolved;\r\n    }\r\n\r\n    function openBid(\r\n        string memory _team1,\r\n        string memory _team2,\r\n        address _bidder2,\r\n        string memory _bidder1ResultGuess, // result format: \"2-1\"\r\n        string memory _bidder2ResultGuess, // result format: \"3-5\"\r\n        uint256 _bidAmount\r\n    ) public {\r\n        // require(currentBid.resolved, \"A bid is already open.\");\r\n        require(_bidder2 != address(0), \"Invalid bidder address.\");\r\n\r\n        currentBid = Bid({\r\n            team1: _team1,\r\n            team2: _team2,\r\n            bidder1: msg.sender,\r\n            bidder2: _bidder2,\r\n            bidder1ResultGuess: _bidder1ResultGuess,\r\n            bidder2ResultGuess: _bidder2ResultGuess,\r\n            result1: 0,\r\n            result2: 0,\r\n            bidAmount: _bidAmount,\r\n            resolved: false\r\n        });\r\n    }\r\n\r\n    function placeBid() public payable {\r\n        // require(\r\n        //     msg.sender != currentBid.bidder1,\r\n        //     \"You cannot outbid yourself.\"\r\n        // );\r\n\r\n        // Return funds to previous bidder\r\n        payable(currentBid.bidder2).transfer(currentBid.bidAmount);\r\n\r\n        // Update bidder\r\n        currentBid.bidder2 = msg.sender;\r\n    }\r\n\r\n    function resolveBid() public {\r\n        require(!currentBid.resolved, \"No open bid available.\");\r\n        require(\r\n            msg.sender == contractOwner,\r\n            \"Only the contract owner can resolve the bid.\"\r\n        );\r\n\r\n        // requestMatchData();\r\n    }\r\n\r\n    // function requestMatchData() private {\r\n    //     currentBid.resolved = true;\r\n        // Chainlink.Request memory request = buildChainlinkRequest(\r\n        //     jobId,\r\n        //     address(this),\r\n        //     this.handleMatchData.selector\r\n        // );\r\n        // request.add(\"get\", \"https://api.football-data.org/v4/matches\"); // Set the Football-Data.org API endpoint for retrieving match data\r\n        // request.add(\r\n        //     \"headers\",\r\n        //     \"X-Auth-Token: 8b752b2a04694a799db1fdf1b9bca649\"\r\n        // ); // Set the actual auth token\r\n        // sendChainlinkRequestTo(oracle, request, fee);\r\n    // }\r\n\r\n    // function handleMatchData(\r\n    //     bytes32 _requestId,\r\n    //     uint256 _result\r\n    // ) public recordChainlinkFulfillment(_requestId) {\r\n    //     // Process the match data received from the API\r\n    //     // Update the bid results based on the fetched data\r\n\r\n    //     // For example:\r\n    //     currentBid.result1 = 2; // Update result for team 1;\r\n    //     currentBid.result2 = 2; // Update result for team 2;\r\n\r\n    //     // Mark the bid as resolved\r\n    //     currentBid.resolved = true;\r\n    // }\r\n}\r\n",
  "sourcePath": "C:\\Users\\Sman9\\Desktop\\   \\ '\\ '\\  '\\project\\contracts\\biddingContract.sol",
  "compiler": {
    "name": "solc",
    "version": "0.8.19+commit.7dd6d404.Emscripten.clang"
  },
  "schemaVersion": "3.4.13",
  "updatedAt": "2023-07-01T17:34:31.814Z",
  "networkType": "ethereum",
  "devdoc": {
    "kind": "dev",
    "methods": {},
    "version": 1
  },
  "userdoc": {
    "kind": "user",
    "methods": {},
    "version": 1
  }
}